{
  "_format": "hh-sol-artifact-1",
  "contractName": "SentinelSavings",
  "sourceName": "contracts/SentinelSavings.sol",
  "abi": [
    {
      "inputs": [
        {
          "internalType": "address",
          "name": "_mneeToken",
          "type": "address"
        }
      ],
      "stateMutability": "nonpayable",
      "type": "constructor"
    },
    {
      "inputs": [],
      "name": "InvalidAmount",
      "type": "error"
    },
    {
      "inputs": [],
      "name": "InvalidLockDuration",
      "type": "error"
    },
    {
      "inputs": [],
      "name": "InvalidVaultAddress",
      "type": "error"
    },
    {
      "inputs": [],
      "name": "NotPlanOwner",
      "type": "error"
    },
    {
      "inputs": [],
      "name": "NothingToWithdraw",
      "type": "error"
    },
    {
      "inputs": [],
      "name": "PlanAlreadyWithdrawn",
      "type": "error"
    },
    {
      "inputs": [],
      "name": "PlanNotFound",
      "type": "error"
    },
    {
      "inputs": [],
      "name": "ReentrancyGuardReentrantCall",
      "type": "error"
    },
    {
      "inputs": [
        {
          "internalType": "uint256",
          "name": "unlockTime",
          "type": "uint256"
        },
        {
          "internalType": "uint256",
          "name": "currentTime",
          "type": "uint256"
        }
      ],
      "name": "StillLocked",
      "type": "error"
    },
    {
      "inputs": [],
      "name": "TransferFailed",
      "type": "error"
    },
    {
      "anonymous": false,
      "inputs": [
        {
          "indexed": true,
          "internalType": "uint256",
          "name": "planId",
          "type": "uint256"
        },
        {
          "indexed": true,
          "internalType": "address",
          "name": "depositor",
          "type": "address"
        },
        {
          "indexed": false,
          "internalType": "uint256",
          "name": "amount",
          "type": "uint256"
        },
        {
          "indexed": false,
          "internalType": "uint256",
          "name": "newTotal",
          "type": "uint256"
        }
      ],
      "name": "DepositMade",
      "type": "event"
    },
    {
      "anonymous": false,
      "inputs": [
        {
          "indexed": true,
          "internalType": "uint256",
          "name": "planId",
          "type": "uint256"
        },
        {
          "indexed": true,
          "internalType": "address",
          "name": "owner",
          "type": "address"
        },
        {
          "indexed": false,
          "internalType": "uint256",
          "name": "amountReturned",
          "type": "uint256"
        }
      ],
      "name": "PlanCancelled",
      "type": "event"
    },
    {
      "anonymous": false,
      "inputs": [
        {
          "indexed": true,
          "internalType": "uint256",
          "name": "planId",
          "type": "uint256"
        },
        {
          "indexed": true,
          "internalType": "address",
          "name": "owner",
          "type": "address"
        },
        {
          "indexed": true,
          "internalType": "address",
          "name": "vaultAddress",
          "type": "address"
        },
        {
          "indexed": false,
          "internalType": "string",
          "name": "name",
          "type": "string"
        },
        {
          "indexed": false,
          "internalType": "uint256",
          "name": "unlockTime",
          "type": "uint256"
        },
        {
          "indexed": false,
          "internalType": "bool",
          "name": "isRecurring",
          "type": "bool"
        }
      ],
      "name": "PlanCreated",
      "type": "event"
    },
    {
      "anonymous": false,
      "inputs": [
        {
          "indexed": true,
          "internalType": "uint256",
          "name": "planId",
          "type": "uint256"
        },
        {
          "indexed": true,
          "internalType": "address",
          "name": "owner",
          "type": "address"
        },
        {
          "indexed": true,
          "internalType": "address",
          "name": "vaultAddress",
          "type": "address"
        },
        {
          "indexed": false,
          "internalType": "uint256",
          "name": "amount",
          "type": "uint256"
        }
      ],
      "name": "Withdrawn",
      "type": "event"
    },
    {
      "inputs": [
        {
          "internalType": "uint256",
          "name": "_planId",
          "type": "uint256"
        }
      ],
      "name": "cancelPlan",
      "outputs": [],
      "stateMutability": "nonpayable",
      "type": "function"
    },
    {
      "inputs": [
        {
          "internalType": "address",
          "name": "_vaultAddress",
          "type": "address"
        },
        {
          "internalType": "string",
          "name": "_name",
          "type": "string"
        },
        {
          "internalType": "uint256",
          "name": "_lockDays",
          "type": "uint256"
        },
        {
          "internalType": "bool",
          "name": "_isRecurring",
          "type": "bool"
        }
      ],
      "name": "createPlan",
      "outputs": [
        {
          "internalType": "uint256",
          "name": "planId",
          "type": "uint256"
        }
      ],
      "stateMutability": "nonpayable",
      "type": "function"
    },
    {
      "inputs": [
        {
          "internalType": "address",
          "name": "_vaultAddress",
          "type": "address"
        },
        {
          "internalType": "string",
          "name": "_name",
          "type": "string"
        },
        {
          "internalType": "uint256",
          "name": "_lockDays",
          "type": "uint256"
        },
        {
          "internalType": "bool",
          "name": "_isRecurring",
          "type": "bool"
        },
        {
          "internalType": "uint256",
          "name": "_initialDeposit",
          "type": "uint256"
        }
      ],
      "name": "createPlanWithDeposit",
      "outputs": [
        {
          "internalType": "uint256",
          "name": "planId",
          "type": "uint256"
        }
      ],
      "stateMutability": "nonpayable",
      "type": "function"
    },
    {
      "inputs": [
        {
          "internalType": "uint256",
          "name": "_planId",
          "type": "uint256"
        },
        {
          "internalType": "uint256",
          "name": "_amount",
          "type": "uint256"
        }
      ],
      "name": "deposit",
      "outputs": [],
      "stateMutability": "nonpayable",
      "type": "function"
    },
    {
      "inputs": [
        {
          "internalType": "uint256",
          "name": "_planId",
          "type": "uint256"
        },
        {
          "internalType": "uint256",
          "name": "_amount",
          "type": "uint256"
        },
        {
          "internalType": "address",
          "name": "_agentWallet",
          "type": "address"
        }
      ],
      "name": "depositFromAgent",
      "outputs": [],
      "stateMutability": "nonpayable",
      "type": "function"
    },
    {
      "inputs": [
        {
          "internalType": "address",
          "name": "_user",
          "type": "address"
        }
      ],
      "name": "getActivePlanCount",
      "outputs": [
        {
          "internalType": "uint256",
          "name": "count",
          "type": "uint256"
        }
      ],
      "stateMutability": "view",
      "type": "function"
    },
    {
      "inputs": [
        {
          "internalType": "uint256",
          "name": "_planId",
          "type": "uint256"
        }
      ],
      "name": "getPlan",
      "outputs": [
        {
          "internalType": "address",
          "name": "owner",
          "type": "address"
        },
        {
          "internalType": "address",
          "name": "vaultAddress",
          "type": "address"
        },
        {
          "internalType": "string",
          "name": "name",
          "type": "string"
        },
        {
          "internalType": "uint256",
          "name": "totalDeposited",
          "type": "uint256"
        },
        {
          "internalType": "uint256",
          "name": "unlockTime",
          "type": "uint256"
        },
        {
          "internalType": "uint256",
          "name": "createdAt",
          "type": "uint256"
        },
        {
          "internalType": "bool",
          "name": "withdrawn",
          "type": "bool"
        },
        {
          "internalType": "bool",
          "name": "isRecurring",
          "type": "bool"
        }
      ],
      "stateMutability": "view",
      "type": "function"
    },
    {
      "inputs": [
        {
          "internalType": "address",
          "name": "_user",
          "type": "address"
        }
      ],
      "name": "getTotalLocked",
      "outputs": [
        {
          "internalType": "uint256",
          "name": "total",
          "type": "uint256"
        }
      ],
      "stateMutability": "view",
      "type": "function"
    },
    {
      "inputs": [
        {
          "internalType": "address",
          "name": "_user",
          "type": "address"
        }
      ],
      "name": "getUserPlans",
      "outputs": [
        {
          "internalType": "uint256[]",
          "name": "",
          "type": "uint256[]"
        }
      ],
      "stateMutability": "view",
      "type": "function"
    },
    {
      "inputs": [
        {
          "internalType": "uint256",
          "name": "_planId",
          "type": "uint256"
        }
      ],
      "name": "isUnlocked",
      "outputs": [
        {
          "internalType": "bool",
          "name": "",
          "type": "bool"
        }
      ],
      "stateMutability": "view",
      "type": "function"
    },
    {
      "inputs": [],
      "name": "mneeToken",
      "outputs": [
        {
          "internalType": "contract IERC20",
          "name": "",
          "type": "address"
        }
      ],
      "stateMutability": "view",
      "type": "function"
    },
    {
      "inputs": [
        {
          "internalType": "uint256",
          "name": "",
          "type": "uint256"
        }
      ],
      "name": "savingsPlans",
      "outputs": [
        {
          "internalType": "address",
          "name": "owner",
          "type": "address"
        },
        {
          "internalType": "address",
          "name": "vaultAddress",
          "type": "address"
        },
        {
          "internalType": "string",
          "name": "name",
          "type": "string"
        },
        {
          "internalType": "uint256",
          "name": "totalDeposited",
          "type": "uint256"
        },
        {
          "internalType": "uint256",
          "name": "unlockTime",
          "type": "uint256"
        },
        {
          "internalType": "uint256",
          "name": "createdAt",
          "type": "uint256"
        },
        {
          "internalType": "bool",
          "name": "withdrawn",
          "type": "bool"
        },
        {
          "internalType": "bool",
          "name": "isRecurring",
          "type": "bool"
        }
      ],
      "stateMutability": "view",
      "type": "function"
    },
    {
      "inputs": [
        {
          "internalType": "uint256",
          "name": "_planId",
          "type": "uint256"
        }
      ],
      "name": "timeUntilUnlock",
      "outputs": [
        {
          "internalType": "uint256",
          "name": "",
          "type": "uint256"
        }
      ],
      "stateMutability": "view",
      "type": "function"
    },
    {
      "inputs": [],
      "name": "totalPlans",
      "outputs": [
        {
          "internalType": "uint256",
          "name": "",
          "type": "uint256"
        }
      ],
      "stateMutability": "view",
      "type": "function"
    },
    {
      "inputs": [
        {
          "internalType": "address",
          "name": "",
          "type": "address"
        },
        {
          "internalType": "uint256",
          "name": "",
          "type": "uint256"
        }
      ],
      "name": "userPlanIds",
      "outputs": [
        {
          "internalType": "uint256",
          "name": "",
          "type": "uint256"
        }
      ],
      "stateMutability": "view",
      "type": "function"
    },
    {
      "inputs": [
        {
          "internalType": "uint256",
          "name": "_planId",
          "type": "uint256"
        }
      ],
      "name": "withdraw",
      "outputs": [],
      "stateMutability": "nonpayable",
      "type": "function"
    }
  ],
  "bytecode": "0x60a060405234801561001057600080fd5b50604051611a07380380611a0783398101604081905261002f9161009f565b60016000556001600160a01b03811661008e5760405162461bcd60e51b815260206004820152601560248201527f496e76616c696420746f6b656e20616464726573730000000000000000000000604482015260640160405180910390fd5b6001600160a01b03166080526100cf565b6000602082840312156100b157600080fd5b81516001600160a01b03811681146100c857600080fd5b9392505050565b6080516118fa61010d600039600081816101b2015281816108bc01528181610a7001528181610c3d01528181610fb6015261127201526118fa6000f3fe608060405234801561001057600080fd5b50600436106101005760003560e01c806372abc8b711610097578063933b691d11610066578063933b691d1461025b578063b703981b1461026e578063cff979a61461028e578063e2bbb158146102a157600080fd5b806372abc8b7146101ec57806376c5f3261461022257806380d6664c146102355780639010edb11461024857600080fd5b806326cd5274116100d357806326cd52741461017c5780632a6d1aa41461018f5780632e1a7d4d146101985780635b71474a146101ad57600080fd5b806305b5a5621461010557806305c77a3c146101355780631a38b90e146101565780631b934ce514610169575b600080fd5b610118610113366004611384565b6102b4565b60405161012c98979695949392919061139d565b60405180910390f35b61014861014336600461145c565b610393565b60405190815260200161012c565b6101486101643660046114ce565b610424565b610148610177366004611384565b610644565b61011861018a366004611384565b61067d565b61014860035481565b6101ab6101a6366004611384565b61078a565b005b6101d47f000000000000000000000000000000000000000000000000000000000000000081565b6040516001600160a01b03909116815260200161012c565b6102126101fa366004611384565b60009081526001602052604090206004015442101590565b604051901515815260200161012c565b6101ab610230366004611540565b6109a3565b6101ab610243366004611384565b610b61565b61014861025636600461145c565b610d0f565b610148610269366004611575565b610d8e565b61028161027c36600461145c565b6110e8565b60405161012c91906115ef565b61014861029c366004611633565b611154565b6101ab6102af36600461165d565b611185565b60016020819052600091825260409091208054918101546002820180546001600160a01b039485169490921692916102eb9061167f565b80601f01602080910402602001604051908101604052809291908181526020018280546103179061167f565b80156103645780601f1061033957610100808354040283529160200191610364565b820191906000526020600020905b81548152906001019060200180831161034757829003601f168201915b505050506003830154600484015460058501546006909501549394919390925060ff8082169161010090041688565b6001600160a01b0381166000908152600260205260408120815b815481101561041d576000600160008484815481106103ce576103ce6116b9565b600091825260208083209091015483528201929092526040019020600681015490915060ff1661040a57600381015461040790856116e5565b93505b5080610415816116fe565b9150506103ad565b5050919050565b60006001600160a01b03861661044d57604051630306120160e01b815260040160405180910390fd5b8260000361046e57604051630f962f3d60e31b815260040160405180910390fd5b6003805490600061047e836116fe565b90915550905060006104938462015180611717565b61049d90426116e5565b9050604051806101000160405280336001600160a01b03168152602001886001600160a01b0316815260200187878080601f0160208091040260200160405190810160405280939291908181526020018383808284376000920182905250938552505050602080830182905260408084018690524260608501526080840183905287151560a090940193909352858252600180825291839020845181546001600160a01b03199081166001600160a01b03928316178355928601519382018054909316931692909217905590820151600282019061057b9082611792565b50606082015160038201556080820151600482015560a0820151600582015560c08201516006909101805460e09093015115156101000261ff00199215159290921661ffff199093169290921717905533600081815260026020908152604080832080546001810182559084529190922001849055516001600160a01b038916919084907f041e0514919067fabc469d40e3069db32bb5db1a45eb18a060907d085833191290610632908b908b9088908b90611852565b60405180910390a45095945050505050565b6000818152600160205260408120600481015442106106665750600092915050565b4281600401546106769190611894565b9392505050565b60008181526001602081905260408220805491810154600382015460048301546005840154600685015460028601805489986060988a98899889988998899894976001600160a01b039687169794909616959492939192909160ff808316926101009004169086906106ee9061167f565b80601f016020809104026020016040519081016040528092919081815260200182805461071a9061167f565b80156107675780601f1061073c57610100808354040283529160200191610767565b820191906000526020600020905b81548152906001019060200180831161074a57829003601f168201915b505050505095509850985098509850985098509850985050919395975091939597565b61079261135a565b600081815260016020526040902080546001600160a01b03166107c857604051632aecd29f60e21b815260040160405180910390fd5b80546001600160a01b031633146107f25760405163f0350d8d60e01b815260040160405180910390fd5b600681015460ff16156108185760405163fcb750df60e01b815260040160405180910390fd5b806003015460000361083d57604051630686827b60e51b815260040160405180910390fd5b80600401544210156108725760048181015460405163104d109160e21b81529182015242602482015260440160405180910390fd5b60038101805460068301805460ff1916600190811790915560009283905583015460405163a9059cbb60e01b81526001600160a01b039182166004820152602481018390529192917f00000000000000000000000000000000000000000000000000000000000000009091169063a9059cbb906044016020604051808303816000875af1158015610907573d6000803e3d6000fd5b505050506040513d601f19601f8201168201806040525081019061092b91906118a7565b90508061094b576040516312171d8360e31b815260040160405180910390fd5b60018301546040518381526001600160a01b0390911690339086907fe5df19de43c8c04fd192bc68e484b2593570925fbb6ad8c07ccafbc2aa5c37a19060200160405180910390a45050506109a06001600055565b50565b6109ab61135a565b600083815260016020526040902080546001600160a01b03166109e157604051632aecd29f60e21b815260040160405180910390fd5b600681015460ff1615610a075760405163fcb750df60e01b815260040160405180910390fd5b82600003610a285760405163162908e360e11b815260040160405180910390fd5b82816003016000828254610a3c91906116e5565b90915550506040516323b872dd60e01b81526001600160a01b038381166004830152306024830152604482018590526000917f0000000000000000000000000000000000000000000000000000000000000000909116906323b872dd906064016020604051808303816000875af1158015610abb573d6000803e3d6000fd5b505050506040513d601f19601f82011682018060405250810190610adf91906118a7565b905080610aff576040516312171d8360e31b815260040160405180910390fd5b826001600160a01b0316857ff7748ed362ae6427631c778e495f7eb63b00c0794b6066744a0cba2c59135a65868560030154604051610b48929190918252602082015260400190565b60405180910390a35050610b5c6001600055565b505050565b610b6961135a565b600081815260016020526040902080546001600160a01b0316610b9f57604051632aecd29f60e21b815260040160405180910390fd5b80546001600160a01b03163314610bc95760405163f0350d8d60e01b815260040160405180910390fd5b600681015460ff1615610bef5760405163fcb750df60e01b815260040160405180910390fd5b60038101805460068301805460ff1916600117905560009091558015610ccc57600182015460405163a9059cbb60e01b81526001600160a01b039182166004820152602481018390526000917f0000000000000000000000000000000000000000000000000000000000000000169063a9059cbb906044016020604051808303816000875af1158015610c86573d6000803e3d6000fd5b505050506040513d601f19601f82011682018060405250810190610caa91906118a7565b905080610cca576040516312171d8360e31b815260040160405180910390fd5b505b604051818152339084907f88a50681a1d03e59ea15fd4f6324e86b511e895c1b5874b2b31282197f326d519060200160405180910390a350506109a06001600055565b6001600160a01b0381166000908152600260205260408120815b815481101561041d5760016000838381548110610d4857610d486116b9565b6000918252602080832090910154835282019290925260400190206006015460ff16610d7c5782610d78816116fe565b9350505b80610d86816116fe565b915050610d29565b6000610d9861135a565b6001600160a01b038716610dbf57604051630306120160e01b815260040160405180910390fd5b83600003610de057604051630f962f3d60e31b815260040160405180910390fd5b81600003610e015760405163162908e360e11b815260040160405180910390fd5b60038054906000610e11836116fe565b9091555090506000610e268562015180611717565b610e3090426116e5565b9050604051806101000160405280336001600160a01b03168152602001896001600160a01b0316815260200188888080601f0160208091040260200160405190810160405280939291908181526020018383808284376000920182905250938552505050602080830187905260408084018690524260608501526080840183905288151560a090940193909352858252600180825291839020845181546001600160a01b03199081166001600160a01b039283161783559286015193820180549093169316929092179055908201516002820190610f0e9082611792565b5060608201516003820155608082015160048083019190915560a0830151600583015560c08301516006909201805460e09094015161ffff1990941692151561ff00191692909217610100931515939093029290921790553360008181526002602090815260408083208054600181018255908452918320909101869055516323b872dd60e01b81529283019190915230602483015260448201859052906001600160a01b037f000000000000000000000000000000000000000000000000000000000000000016906323b872dd906064016020604051808303816000875af1158015610fff573d6000803e3d6000fd5b505050506040513d601f19601f8201168201806040525081019061102391906118a7565b905080611043576040516312171d8360e31b815260040160405180910390fd5b886001600160a01b0316336001600160a01b0316847f041e0514919067fabc469d40e3069db32bb5db1a45eb18a060907d08583319128b8b878b60405161108d9493929190611852565b60405180910390a46040805185815260208101869052339185917ff7748ed362ae6427631c778e495f7eb63b00c0794b6066744a0cba2c59135a65910160405180910390a350506110de6001600055565b9695505050505050565b6001600160a01b03811660009081526002602090815260409182902080548351818402810184019094528084526060939283018282801561114857602002820191906000526020600020905b815481526020019060010190808311611134575b50505050509050919050565b6002602052816000526040600020818154811061117057600080fd5b90600052602060002001600091509150505481565b61118d61135a565b600082815260016020526040902080546001600160a01b03166111c357604051632aecd29f60e21b815260040160405180910390fd5b80546001600160a01b031633146111ed5760405163f0350d8d60e01b815260040160405180910390fd5b600681015460ff16156112135760405163fcb750df60e01b815260040160405180910390fd5b816000036112345760405163162908e360e11b815260040160405180910390fd5b8181600301600082825461124891906116e5565b90915550506040516323b872dd60e01b8152336004820152306024820152604481018390526000907f00000000000000000000000000000000000000000000000000000000000000006001600160a01b0316906323b872dd906064016020604051808303816000875af11580156112c3573d6000803e3d6000fd5b505050506040513d601f19601f820116820180604052508101906112e791906118a7565b905080611307576040516312171d8360e31b815260040160405180910390fd5b6003820154604080518581526020810192909252339186917ff7748ed362ae6427631c778e495f7eb63b00c0794b6066744a0cba2c59135a65910160405180910390a350506113566001600055565b5050565b60026000540361137d57604051633ee5aeb560e01b815260040160405180910390fd5b6002600055565b60006020828403121561139657600080fd5b5035919050565b6001600160a01b03898116825288166020808301919091526101006040830181905288519083018190526000918291905b818310156113ed578a83018101518584016101200152918201916113ce565b506101209150600082828601015281601f19601f830116850101925050508660608301528560808301528460a083015261142b60c083018515159052565b82151560e08301529998505050505050505050565b80356001600160a01b038116811461145757600080fd5b919050565b60006020828403121561146e57600080fd5b61067682611440565b60008083601f84011261148957600080fd5b50813567ffffffffffffffff8111156114a157600080fd5b6020830191508360208285010111156114b957600080fd5b9250929050565b80151581146109a057600080fd5b6000806000806000608086880312156114e657600080fd5b6114ef86611440565b9450602086013567ffffffffffffffff81111561150b57600080fd5b61151788828901611477565b909550935050604086013591506060860135611532816114c0565b809150509295509295909350565b60008060006060848603121561155557600080fd5b833592506020840135915061156c60408501611440565b90509250925092565b60008060008060008060a0878903121561158e57600080fd5b61159787611440565b9550602087013567ffffffffffffffff8111156115b357600080fd5b6115bf89828a01611477565b9096509450506040870135925060608701356115da816114c0565b80925050608087013590509295509295509295565b6020808252825182820181905260009190848201906040850190845b818110156116275783518352928401929184019160010161160b565b50909695505050505050565b6000806040838503121561164657600080fd5b61164f83611440565b946020939093013593505050565b6000806040838503121561167057600080fd5b50508035926020909101359150565b600181811c9082168061169357607f821691505b6020821081036116b357634e487b7160e01b600052602260045260246000fd5b50919050565b634e487b7160e01b600052603260045260246000fd5b634e487b7160e01b600052601160045260246000fd5b808201808211156116f8576116f86116cf565b92915050565b600060018201611710576117106116cf565b5060010190565b80820281158282048414176116f8576116f86116cf565b634e487b7160e01b600052604160045260246000fd5b601f821115610b5c57600081815260208120601f850160051c8101602086101561176b5750805b601f850160051c820191505b8181101561178a57828155600101611777565b505050505050565b815167ffffffffffffffff8111156117ac576117ac61172e565b6117c0816117ba845461167f565b84611744565b602080601f8311600181146117f557600084156117dd5750858301515b600019600386901b1c1916600185901b17855561178a565b600085815260208120601f198616915b8281101561182457888601518255948401946001909101908401611805565b50858210156118425787850151600019600388901b60f8161c191681555b5050505050600190811b01905550565b606081528360608201528385608083013760006080858301015260006080601f19601f8701168301019050836020830152821515604083015295945050505050565b818103818111156116f8576116f86116cf565b6000602082840312156118b957600080fd5b8151610676816114c056fea2646970667358221220302d3003e07b0a253db78626f5c41002672eff0616513897d5a8443cdcd69c1a64736f6c63430008140033",
  "linkReferences": {},
  "deployedLinkReferences": {}
}