{
  "_format": "hh-sol-artifact-1",
  "contractName": "SentinelVault",
  "sourceName": "contracts/SentinelVault.sol",
  "abi": [
    {
      "inputs": [
        {
          "internalType": "address",
          "name": "_owner",
          "type": "address"
        },
        {
          "internalType": "address",
          "name": "_mneeToken",
          "type": "address"
        }
      ],
      "stateMutability": "nonpayable",
      "type": "constructor"
    },
    {
      "inputs": [],
      "name": "ReentrancyGuardReentrantCall",
      "type": "error"
    },
    {
      "inputs": [
        {
          "internalType": "address",
          "name": "token",
          "type": "address"
        }
      ],
      "name": "SafeERC20FailedOperation",
      "type": "error"
    },
    {
      "anonymous": false,
      "inputs": [
        {
          "indexed": true,
          "internalType": "address",
          "name": "agent",
          "type": "address"
        },
        {
          "indexed": false,
          "internalType": "bool",
          "name": "approved",
          "type": "bool"
        }
      ],
      "name": "AgentUpdated",
      "type": "event"
    },
    {
      "anonymous": false,
      "inputs": [
        {
          "indexed": true,
          "internalType": "address",
          "name": "from",
          "type": "address"
        },
        {
          "indexed": false,
          "internalType": "uint256",
          "name": "amount",
          "type": "uint256"
        }
      ],
      "name": "Deposited",
      "type": "event"
    },
    {
      "anonymous": false,
      "inputs": [
        {
          "indexed": false,
          "internalType": "uint256",
          "name": "dailyLimit",
          "type": "uint256"
        },
        {
          "indexed": false,
          "internalType": "uint256",
          "name": "transactionLimit",
          "type": "uint256"
        },
        {
          "indexed": false,
          "internalType": "uint256",
          "name": "timeLockDuration",
          "type": "uint256"
        }
      ],
      "name": "LimitsUpdated",
      "type": "event"
    },
    {
      "anonymous": false,
      "inputs": [
        {
          "indexed": true,
          "internalType": "uint256",
          "name": "txId",
          "type": "uint256"
        }
      ],
      "name": "PaymentExecuted",
      "type": "event"
    },
    {
      "anonymous": false,
      "inputs": [
        {
          "indexed": true,
          "internalType": "uint256",
          "name": "txId",
          "type": "uint256"
        },
        {
          "indexed": true,
          "internalType": "address",
          "name": "agent",
          "type": "address"
        },
        {
          "indexed": true,
          "internalType": "address",
          "name": "vendor",
          "type": "address"
        },
        {
          "indexed": false,
          "internalType": "uint256",
          "name": "amount",
          "type": "uint256"
        },
        {
          "indexed": false,
          "internalType": "uint256",
          "name": "executeAfter",
          "type": "uint256"
        }
      ],
      "name": "PaymentRequested",
      "type": "event"
    },
    {
      "anonymous": false,
      "inputs": [
        {
          "indexed": true,
          "internalType": "uint256",
          "name": "txId",
          "type": "uint256"
        },
        {
          "indexed": false,
          "internalType": "string",
          "name": "reason",
          "type": "string"
        }
      ],
      "name": "PaymentRevoked",
      "type": "event"
    },
    {
      "anonymous": false,
      "inputs": [
        {
          "indexed": true,
          "internalType": "address",
          "name": "vendor",
          "type": "address"
        },
        {
          "indexed": false,
          "internalType": "bool",
          "name": "trusted",
          "type": "bool"
        }
      ],
      "name": "VendorUpdated",
      "type": "event"
    },
    {
      "anonymous": false,
      "inputs": [
        {
          "indexed": true,
          "internalType": "address",
          "name": "to",
          "type": "address"
        },
        {
          "indexed": false,
          "internalType": "uint256",
          "name": "amount",
          "type": "uint256"
        }
      ],
      "name": "Withdrawn",
      "type": "event"
    },
    {
      "inputs": [
        {
          "internalType": "address",
          "name": "",
          "type": "address"
        }
      ],
      "name": "approvedAgents",
      "outputs": [
        {
          "internalType": "bool",
          "name": "",
          "type": "bool"
        }
      ],
      "stateMutability": "view",
      "type": "function"
    },
    {
      "inputs": [],
      "name": "dailyLimit",
      "outputs": [
        {
          "internalType": "uint256",
          "name": "",
          "type": "uint256"
        }
      ],
      "stateMutability": "view",
      "type": "function"
    },
    {
      "inputs": [],
      "name": "dailySpent",
      "outputs": [
        {
          "internalType": "uint256",
          "name": "",
          "type": "uint256"
        }
      ],
      "stateMutability": "view",
      "type": "function"
    },
    {
      "inputs": [
        {
          "internalType": "uint256",
          "name": "amount",
          "type": "uint256"
        }
      ],
      "name": "deposit",
      "outputs": [],
      "stateMutability": "nonpayable",
      "type": "function"
    },
    {
      "inputs": [
        {
          "internalType": "uint256",
          "name": "txId",
          "type": "uint256"
        }
      ],
      "name": "executePayment",
      "outputs": [],
      "stateMutability": "nonpayable",
      "type": "function"
    },
    {
      "inputs": [
        {
          "internalType": "uint256",
          "name": "txId",
          "type": "uint256"
        }
      ],
      "name": "getTransaction",
      "outputs": [
        {
          "components": [
            {
              "internalType": "address",
              "name": "agent",
              "type": "address"
            },
            {
              "internalType": "address",
              "name": "vendor",
              "type": "address"
            },
            {
              "internalType": "uint256",
              "name": "amount",
              "type": "uint256"
            },
            {
              "internalType": "uint256",
              "name": "timestamp",
              "type": "uint256"
            },
            {
              "internalType": "uint256",
              "name": "executeAfter",
              "type": "uint256"
            },
            {
              "internalType": "bool",
              "name": "executed",
              "type": "bool"
            },
            {
              "internalType": "bool",
              "name": "revoked",
              "type": "bool"
            },
            {
              "internalType": "string",
              "name": "reason",
              "type": "string"
            }
          ],
          "internalType": "struct SentinelVault.Transaction",
          "name": "",
          "type": "tuple"
        }
      ],
      "stateMutability": "view",
      "type": "function"
    },
    {
      "inputs": [],
      "name": "getVaultBalance",
      "outputs": [
        {
          "internalType": "uint256",
          "name": "",
          "type": "uint256"
        }
      ],
      "stateMutability": "view",
      "type": "function"
    },
    {
      "inputs": [],
      "name": "lastDayReset",
      "outputs": [
        {
          "internalType": "uint256",
          "name": "",
          "type": "uint256"
        }
      ],
      "stateMutability": "view",
      "type": "function"
    },
    {
      "inputs": [],
      "name": "mneeToken",
      "outputs": [
        {
          "internalType": "contract IERC20",
          "name": "",
          "type": "address"
        }
      ],
      "stateMutability": "view",
      "type": "function"
    },
    {
      "inputs": [],
      "name": "owner",
      "outputs": [
        {
          "internalType": "address",
          "name": "",
          "type": "address"
        }
      ],
      "stateMutability": "view",
      "type": "function"
    },
    {
      "inputs": [
        {
          "internalType": "address",
          "name": "vendor",
          "type": "address"
        },
        {
          "internalType": "uint256",
          "name": "amount",
          "type": "uint256"
        },
        {
          "internalType": "address",
          "name": "agent",
          "type": "address"
        }
      ],
      "name": "requestPayment",
      "outputs": [
        {
          "internalType": "uint256",
          "name": "",
          "type": "uint256"
        }
      ],
      "stateMutability": "nonpayable",
      "type": "function"
    },
    {
      "inputs": [
        {
          "internalType": "uint256",
          "name": "txId",
          "type": "uint256"
        },
        {
          "internalType": "string",
          "name": "reason",
          "type": "string"
        }
      ],
      "name": "revokeTransaction",
      "outputs": [],
      "stateMutability": "nonpayable",
      "type": "function"
    },
    {
      "inputs": [
        {
          "internalType": "address",
          "name": "agent",
          "type": "address"
        },
        {
          "internalType": "bool",
          "name": "approved",
          "type": "bool"
        }
      ],
      "name": "setApprovedAgent",
      "outputs": [],
      "stateMutability": "nonpayable",
      "type": "function"
    },
    {
      "inputs": [
        {
          "internalType": "uint256",
          "name": "_dailyLimit",
          "type": "uint256"
        },
        {
          "internalType": "uint256",
          "name": "_transactionLimit",
          "type": "uint256"
        },
        {
          "internalType": "uint256",
          "name": "_timeLockDuration",
          "type": "uint256"
        }
      ],
      "name": "setLimits",
      "outputs": [],
      "stateMutability": "nonpayable",
      "type": "function"
    },
    {
      "inputs": [
        {
          "internalType": "address",
          "name": "vendor",
          "type": "address"
        },
        {
          "internalType": "bool",
          "name": "trusted",
          "type": "bool"
        }
      ],
      "name": "setTrustedVendor",
      "outputs": [],
      "stateMutability": "nonpayable",
      "type": "function"
    },
    {
      "inputs": [],
      "name": "timeLockDuration",
      "outputs": [
        {
          "internalType": "uint256",
          "name": "",
          "type": "uint256"
        }
      ],
      "stateMutability": "view",
      "type": "function"
    },
    {
      "inputs": [],
      "name": "transactionLimit",
      "outputs": [
        {
          "internalType": "uint256",
          "name": "",
          "type": "uint256"
        }
      ],
      "stateMutability": "view",
      "type": "function"
    },
    {
      "inputs": [
        {
          "internalType": "uint256",
          "name": "",
          "type": "uint256"
        }
      ],
      "name": "transactions",
      "outputs": [
        {
          "internalType": "address",
          "name": "agent",
          "type": "address"
        },
        {
          "internalType": "address",
          "name": "vendor",
          "type": "address"
        },
        {
          "internalType": "uint256",
          "name": "amount",
          "type": "uint256"
        },
        {
          "internalType": "uint256",
          "name": "timestamp",
          "type": "uint256"
        },
        {
          "internalType": "uint256",
          "name": "executeAfter",
          "type": "uint256"
        },
        {
          "internalType": "bool",
          "name": "executed",
          "type": "bool"
        },
        {
          "internalType": "bool",
          "name": "revoked",
          "type": "bool"
        },
        {
          "internalType": "string",
          "name": "reason",
          "type": "string"
        }
      ],
      "stateMutability": "view",
      "type": "function"
    },
    {
      "inputs": [
        {
          "internalType": "address",
          "name": "newOwner",
          "type": "address"
        }
      ],
      "name": "transferOwnership",
      "outputs": [],
      "stateMutability": "nonpayable",
      "type": "function"
    },
    {
      "inputs": [
        {
          "internalType": "address",
          "name": "",
          "type": "address"
        }
      ],
      "name": "trustedVendors",
      "outputs": [
        {
          "internalType": "bool",
          "name": "",
          "type": "bool"
        }
      ],
      "stateMutability": "view",
      "type": "function"
    },
    {
      "inputs": [],
      "name": "txCounter",
      "outputs": [
        {
          "internalType": "uint256",
          "name": "",
          "type": "uint256"
        }
      ],
      "stateMutability": "view",
      "type": "function"
    },
    {
      "inputs": [
        {
          "internalType": "uint256",
          "name": "amount",
          "type": "uint256"
        }
      ],
      "name": "withdraw",
      "outputs": [],
      "stateMutability": "nonpayable",
      "type": "function"
    },
    {
      "inputs": [],
      "name": "withdrawAll",
      "outputs": [],
      "stateMutability": "nonpayable",
      "type": "function"
    }
  ],
  "bytecode": "0x60806040523480156200001157600080fd5b506040516200191d3803806200191d8339810160408190526200003491620000c9565b6001600081815581546001600160a01b03199081166001600160a01b03958616908117845560028054909216949095169390931790925569021e19e0c9bab2400000600355683635c9adc5dea00000600455603c60055542600755918152600b60205260409020805460ff1916909117905562000101565b80516001600160a01b0381168114620000c457600080fd5b919050565b60008060408385031215620000dd57600080fd5b620000e883620000ac565b9150620000f860208401620000ac565b90509250929050565b61180c80620001116000396000f3fe608060405234801561001057600080fd5b506004361061014d5760003560e01c806374f079b8116100c3578063b6b55f251161007c578063b6b55f25146102e0578063c64bb9ab146102f3578063ed12e8ef14610306578063f19605d61461030e578063f2fde38b14610317578063ff96df441461032a57600080fd5b806374f079b8146102695780637af8b54614610272578063853828b6146102955780638da5cb5b1461029d5780639ace38c2146102b0578063b1b60c53146102d757600080fd5b80632e1a7d4d116101155780632e1a7d4d146101dc57806333ea3dc8146101ef578063421e49391461020f578063496f4e52146102225780635b71474a1461023557806367eeba0c1461026057600080fd5b80630bc6b89c146101525780630fc4577f1461016e57806312b8874b14610183578063162a0cf8146101b6578063189ae5f2146101c9575b600080fd5b61015b60065481565b6040519081526020015b60405180910390f35b61018161017c3660046111f4565b610333565b005b6101a661019136600461128c565b600b6020526000908152604090205460ff1681565b6040519015158152602001610165565b6101816101c43660046112ae565b610469565b6101816101d73660046112c7565b610636565b6101816101ea3660046112ae565b6106b5565b6102026101fd3660046112ae565b610798565b6040516101659190611339565b61015b61021d3660046113be565b61090a565b6101816102303660046113fa565b610c3c565b600254610248906001600160a01b031681565b6040516001600160a01b039091168152602001610165565b61015b60035481565b61015b60085481565b6101a661028036600461128c565b600a6020526000908152604090205460ff1681565b610181610cc6565b600154610248906001600160a01b031681565b6102c36102be3660046112ae565b610dad565b604051610165989796959493929190611436565b61015b60075481565b6101816102ee3660046112ae565b610e8f565b6101816103013660046113fa565b610f01565b61015b610f83565b61015b60045481565b61018161032536600461128c565b610ff5565b61015b60055481565b6001546001600160a01b031633146103665760405162461bcd60e51b815260040161035d90611497565b60405180910390fd5b6000838152600960205260409020600581015460ff16156103bc5760405162461bcd60e51b815260206004820152601060248201526f105b1c9958591e48195e1958dd5d195960821b604482015260640161035d565b6005810154610100900460ff16156104085760405162461bcd60e51b815260206004820152600f60248201526e105b1c9958591e481c995d9bdad959608a1b604482015260640161035d565b60058101805461ff00191661010017905560068101610428838583611558565b50837f627557e00ce03d8a897b860b4b175d055bf52aa916cf0cd6114e28c64ae4fcd5848460405161045b929190611619565b60405180910390a250505050565b6104716110b6565b6000818152600960205260409020600581015460ff16156104c75760405162461bcd60e51b815260206004820152601060248201526f105b1c9958591e48195e1958dd5d195960821b604482015260640161035d565b6005810154610100900460ff16156105175760405162461bcd60e51b8152602060048201526013602482015272151c985b9cd858dd1a5bdb881c995d9bdad959606a1b604482015260640161035d565b80600401544210156105615760405162461bcd60e51b8152602060048201526013602482015272151a5b595b1bd8dac81b9bdd081c185cdcd959606a1b604482015260640161035d565b610569610f83565b8160020154111561058c5760405162461bcd60e51b815260040161035d90611648565b60075461059c906201518061168c565b4211156105ad576000600655426007555b60058101805460ff191660011790556002810154600680546000906105d390849061168c565b9091555050600181015460028083015490546105fd926001600160a01b03918216929116906110e0565b60405182907f2cf6e39c4fd468d6db1351b49285bf581266eef03ee0619df3ae93af0e62e7d790600090a2506106336001600055565b50565b6001546001600160a01b031633146106605760405162461bcd60e51b815260040161035d90611497565b60038390556004829055600581905560408051848152602081018490529081018290527faa2ef8ba434f2f6bdaad3fcc2d5c35f02b08a47173c94877259407614bc46b559060600160405180910390a1505050565b6001546001600160a01b031633146106df5760405162461bcd60e51b815260040161035d90611497565b6106e76110b6565b600081116107075760405162461bcd60e51b815260040161035d906116a5565b61070f610f83565b81111561072e5760405162461bcd60e51b815260040161035d90611648565b60015460025461074b916001600160a01b039182169116836110e0565b6001546040518281526001600160a01b03909116907f7084f5476618d8e60b11ef0d7d3f06914655adb8793e28ff7f018d4c76d505d5906020015b60405180910390a26106336001600055565b6107f660405180610100016040528060006001600160a01b0316815260200160006001600160a01b03168152602001600081526020016000815260200160008152602001600015158152602001600015158152602001606081525090565b6000828152600960209081526040918290208251610100808201855282546001600160a01b039081168352600184015416938201939093526002820154938101939093526003810154606084015260048101546080840152600581015460ff808216151560a0860152929004909116151560c083015260068101805460e084019190610881906114d0565b80601f01602080910402602001604051908101604052809291908181526020018280546108ad906114d0565b80156108fa5780601f106108cf576101008083540402835291602001916108fa565b820191906000526020600020905b8154815290600101906020018083116108dd57829003601f168201915b5050505050815250509050919050565b336000908152600b602052604081205460ff168061093257506001546001600160a01b031633145b6109735760405162461bcd60e51b8152602060048201526012602482015271139bdd08185c1c1c9bdd9959081859d95b9d60721b604482015260640161035d565b600083116109935760405162461bcd60e51b815260040161035d906116a5565b61099b610f83565b8311156109ba5760405162461bcd60e51b815260040161035d90611648565b600454831115610a0c5760405162461bcd60e51b815260206004820152601960248201527f45786365656473207472616e73616374696f6e206c696d697400000000000000604482015260640161035d565b600754610a1c906201518061168c565b421115610a2d576000600655426007555b60035483600654610a3e919061168c565b1115610a825760405162461bcd60e51b8152602060048201526013602482015272115e18d959591cc819185a5b1e481b1a5b5a5d606a1b604482015260640161035d565b6001600160a01b0384166000908152600a602052604081205460ff16610aaa57600554610aad565b60005b9050604051806101000160405280846001600160a01b03168152602001866001600160a01b031681526020018581526020014281526020018242610af1919061168c565b81526000602080830182905260408084018390528051808301825283815260609485015260085483526009825291829020845181546001600160a01b039182166001600160a01b031991821617835592860151600183018054919092169316929092179091559083015160028201559082015160038201556080820151600482015560a082015160058201805460c085015115156101000261ff00199315159390931661ffff199091161791909117905560e08201516006820190610bb690826116d1565b50506008546001600160a01b0380881692508516907f730c99430bf255674e5e30f1294ef7d9c58160fe1b54679f5e224e5f0011beae87610bf7864261168c565b6040805192835260208301919091520160405180910390a460088054906000610c1f83611791565b91905055506001600854610c3391906117aa565b95945050505050565b6001546001600160a01b03163314610c665760405162461bcd60e51b815260040161035d90611497565b6001600160a01b0382166000818152600a6020908152604091829020805460ff191685151590811790915591519182527f78731f6fcc5c51d8eba77a93bc9db049d9fb47e6de291d1e521e4b3a55580ccd91015b60405180910390a25050565b6001546001600160a01b03163314610cf05760405162461bcd60e51b815260040161035d90611497565b610cf86110b6565b6000610d02610f83565b905060008111610d415760405162461bcd60e51b815260206004820152600a6024820152694e6f2062616c616e636560b01b604482015260640161035d565b600154600254610d5e916001600160a01b039182169116836110e0565b6001546040518281526001600160a01b03909116907f7084f5476618d8e60b11ef0d7d3f06914655adb8793e28ff7f018d4c76d505d59060200160405180910390a250610dab6001600055565b565b60096020526000908152604090208054600182015460028301546003840154600485015460058601546006870180546001600160a01b0397881698979096169694959394929360ff8084169461010090940416929190610e0c906114d0565b80601f0160208091040260200160405190810160405280929190818152602001828054610e38906114d0565b8015610e855780601f10610e5a57610100808354040283529160200191610e85565b820191906000526020600020905b815481529060010190602001808311610e6857829003601f168201915b5050505050905088565b610e976110b6565b60008111610eb75760405162461bcd60e51b815260040161035d906116a5565b600254610ecf906001600160a01b0316333084611144565b60405181815233907f2da466a7b24304f47e87fa2e1e5a81b9831ce54fec19055ce277ca2f39ba42c490602001610786565b6001546001600160a01b03163314610f2b5760405162461bcd60e51b815260040161035d90611497565b6001600160a01b0382166000818152600b6020908152604091829020805460ff191685151590811790915591519182527fe9426c05342415a2258554b212d5c628e522888281554af132005b419bfb43b99101610cba565b6002546040516370a0823160e01b81523060048201526000916001600160a01b0316906370a0823190602401602060405180830381865afa158015610fcc573d6000803e3d6000fd5b505050506040513d601f19601f82011682018060405250810190610ff091906117bd565b905090565b6001546001600160a01b0316331461101f5760405162461bcd60e51b815260040161035d90611497565b6001600160a01b0381166110675760405162461bcd60e51b815260206004820152600f60248201526e496e76616c6964206164647265737360881b604482015260640161035d565b600180546001600160a01b039081166000908152600b6020526040808220805460ff1990811690915584546001600160a01b031916959093169485178455938152929092208054909216179055565b6002600054036110d957604051633ee5aeb560e01b815260040160405180910390fd5b6002600055565b6040516001600160a01b0383811660248301526044820183905261113f91859182169063a9059cbb906064015b604051602081830303815290604052915060e01b6020820180516001600160e01b038381831617835250505050611183565b505050565b6040516001600160a01b03848116602483015283811660448301526064820183905261117d9186918216906323b872dd9060840161110d565b50505050565b600080602060008451602086016000885af1806111a6576040513d6000823e3d81fd5b50506000513d915081156111be5780600114156111cb565b6001600160a01b0384163b155b1561117d57604051635274afe760e01b81526001600160a01b038516600482015260240161035d565b60008060006040848603121561120957600080fd5b83359250602084013567ffffffffffffffff8082111561122857600080fd5b818601915086601f83011261123c57600080fd5b81358181111561124b57600080fd5b87602082850101111561125d57600080fd5b6020830194508093505050509250925092565b80356001600160a01b038116811461128757600080fd5b919050565b60006020828403121561129e57600080fd5b6112a782611270565b9392505050565b6000602082840312156112c057600080fd5b5035919050565b6000806000606084860312156112dc57600080fd5b505081359360208301359350604090920135919050565b6000815180845260005b81811015611319576020818501810151868301820152016112fd565b506000602082860101526020601f19601f83011685010191505092915050565b60208152600060018060a01b03808451166020840152806020850151166040840152506040830151606083015260608301516080830152608083015160a083015260a083015161138d60c084018215159052565b5060c083015180151560e08401525060e0830151610100838101526113b66101208401826112f3565b949350505050565b6000806000606084860312156113d357600080fd5b6113dc84611270565b9250602084013591506113f160408501611270565b90509250925092565b6000806040838503121561140d57600080fd5b61141683611270565b91506020830135801515811461142b57600080fd5b809150509250929050565b6001600160a01b0389811682528816602082015260408101879052606081018690526080810185905283151560a082015282151560c082015261010060e08201819052600090611488838201856112f3565b9b9a5050505050505050505050565b6020808252600990820152682737ba1037bbb732b960b91b604082015260600190565b634e487b7160e01b600052604160045260246000fd5b600181811c908216806114e457607f821691505b60208210810361150457634e487b7160e01b600052602260045260246000fd5b50919050565b601f82111561113f57600081815260208120601f850160051c810160208610156115315750805b601f850160051c820191505b818110156115505782815560010161153d565b505050505050565b67ffffffffffffffff831115611570576115706114ba565b6115848361157e83546114d0565b8361150a565b6000601f8411600181146115b857600085156115a05750838201355b600019600387901b1c1916600186901b178355611612565b600083815260209020601f19861690835b828110156115e957868501358255602094850194600190920191016115c9565b50868210156116065760001960f88860031b161c19848701351681555b505060018560011b0183555b5050505050565b60208152816020820152818360408301376000818301604090810191909152601f909201601f19160101919050565b602080825260149082015273496e73756666696369656e742062616c616e636560601b604082015260600190565b634e487b7160e01b600052601160045260246000fd5b8082018082111561169f5761169f611676565b92915050565b6020808252601290820152710416d6f756e74206d757374206265203e20360741b604082015260600190565b815167ffffffffffffffff8111156116eb576116eb6114ba565b6116ff816116f984546114d0565b8461150a565b602080601f831160018114611734576000841561171c5750858301515b600019600386901b1c1916600185901b178555611550565b600085815260208120601f198616915b8281101561176357888601518255948401946001909101908401611744565b50858210156117815787850151600019600388901b60f8161c191681555b5050505050600190811b01905550565b6000600182016117a3576117a3611676565b5060010190565b8181038181111561169f5761169f611676565b6000602082840312156117cf57600080fd5b505191905056fea2646970667358221220a9c386cff70d2af87fdaf160cae0c3db17c4d527c0cd8b131a2ac6999f1212f764736f6c63430008140033",
  "linkReferences": {},
  "deployedLinkReferences": {}
}