{
  "_format": "hh-sol-artifact-1",
  "contractName": "SentinelSavings",
  "sourceName": "contracts/SentinelSavings.sol",
  "abi": [
    {
      "inputs": [
        {
          "internalType": "address",
          "name": "_mneeToken",
          "type": "address"
        }
      ],
      "stateMutability": "nonpayable",
      "type": "constructor"
    },
    {
      "inputs": [
        {
          "internalType": "uint256",
          "name": "unlockTime",
          "type": "uint256"
        },
        {
          "internalType": "uint256",
          "name": "currentTime",
          "type": "uint256"
        }
      ],
      "name": "HardLockCannotCancel",
      "type": "error"
    },
    {
      "inputs": [],
      "name": "InvalidAmount",
      "type": "error"
    },
    {
      "inputs": [],
      "name": "InvalidLockDuration",
      "type": "error"
    },
    {
      "inputs": [],
      "name": "InvalidVaultAddress",
      "type": "error"
    },
    {
      "inputs": [],
      "name": "NotPlanOwner",
      "type": "error"
    },
    {
      "inputs": [],
      "name": "NothingToWithdraw",
      "type": "error"
    },
    {
      "inputs": [],
      "name": "PlanAlreadyWithdrawn",
      "type": "error"
    },
    {
      "inputs": [],
      "name": "PlanNotFound",
      "type": "error"
    },
    {
      "inputs": [],
      "name": "ReentrancyGuardReentrantCall",
      "type": "error"
    },
    {
      "inputs": [
        {
          "internalType": "uint256",
          "name": "unlockTime",
          "type": "uint256"
        },
        {
          "internalType": "uint256",
          "name": "currentTime",
          "type": "uint256"
        }
      ],
      "name": "StillLocked",
      "type": "error"
    },
    {
      "inputs": [],
      "name": "TransferFailed",
      "type": "error"
    },
    {
      "anonymous": false,
      "inputs": [
        {
          "indexed": true,
          "internalType": "uint256",
          "name": "planId",
          "type": "uint256"
        },
        {
          "indexed": true,
          "internalType": "address",
          "name": "depositor",
          "type": "address"
        },
        {
          "indexed": false,
          "internalType": "uint256",
          "name": "amount",
          "type": "uint256"
        },
        {
          "indexed": false,
          "internalType": "uint256",
          "name": "newTotal",
          "type": "uint256"
        }
      ],
      "name": "DepositMade",
      "type": "event"
    },
    {
      "anonymous": false,
      "inputs": [
        {
          "indexed": true,
          "internalType": "uint256",
          "name": "planId",
          "type": "uint256"
        },
        {
          "indexed": true,
          "internalType": "address",
          "name": "owner",
          "type": "address"
        },
        {
          "indexed": false,
          "internalType": "uint256",
          "name": "amountReturned",
          "type": "uint256"
        }
      ],
      "name": "PlanCancelled",
      "type": "event"
    },
    {
      "anonymous": false,
      "inputs": [
        {
          "indexed": true,
          "internalType": "uint256",
          "name": "planId",
          "type": "uint256"
        },
        {
          "indexed": true,
          "internalType": "address",
          "name": "owner",
          "type": "address"
        },
        {
          "indexed": true,
          "internalType": "address",
          "name": "vaultAddress",
          "type": "address"
        },
        {
          "indexed": false,
          "internalType": "string",
          "name": "name",
          "type": "string"
        },
        {
          "indexed": false,
          "internalType": "uint256",
          "name": "unlockTime",
          "type": "uint256"
        },
        {
          "indexed": false,
          "internalType": "bool",
          "name": "isRecurring",
          "type": "bool"
        },
        {
          "indexed": false,
          "internalType": "enum SentinelSavings.LockType",
          "name": "lockType",
          "type": "uint8"
        }
      ],
      "name": "PlanCreated",
      "type": "event"
    },
    {
      "anonymous": false,
      "inputs": [
        {
          "indexed": true,
          "internalType": "uint256",
          "name": "planId",
          "type": "uint256"
        },
        {
          "indexed": true,
          "internalType": "address",
          "name": "owner",
          "type": "address"
        },
        {
          "indexed": true,
          "internalType": "address",
          "name": "vaultAddress",
          "type": "address"
        },
        {
          "indexed": false,
          "internalType": "uint256",
          "name": "amount",
          "type": "uint256"
        }
      ],
      "name": "Withdrawn",
      "type": "event"
    },
    {
      "inputs": [
        {
          "internalType": "uint256",
          "name": "_planId",
          "type": "uint256"
        }
      ],
      "name": "canCancelNow",
      "outputs": [
        {
          "internalType": "bool",
          "name": "",
          "type": "bool"
        }
      ],
      "stateMutability": "view",
      "type": "function"
    },
    {
      "inputs": [
        {
          "internalType": "uint256",
          "name": "_planId",
          "type": "uint256"
        }
      ],
      "name": "cancelPlan",
      "outputs": [],
      "stateMutability": "nonpayable",
      "type": "function"
    },
    {
      "inputs": [
        {
          "internalType": "address",
          "name": "_vaultAddress",
          "type": "address"
        },
        {
          "internalType": "string",
          "name": "_name",
          "type": "string"
        },
        {
          "internalType": "uint256",
          "name": "_lockDays",
          "type": "uint256"
        },
        {
          "internalType": "bool",
          "name": "_isRecurring",
          "type": "bool"
        },
        {
          "internalType": "enum SentinelSavings.LockType",
          "name": "_lockType",
          "type": "uint8"
        }
      ],
      "name": "createPlan",
      "outputs": [
        {
          "internalType": "uint256",
          "name": "planId",
          "type": "uint256"
        }
      ],
      "stateMutability": "nonpayable",
      "type": "function"
    },
    {
      "inputs": [
        {
          "internalType": "address",
          "name": "_vaultAddress",
          "type": "address"
        },
        {
          "internalType": "string",
          "name": "_name",
          "type": "string"
        },
        {
          "internalType": "uint256",
          "name": "_lockDays",
          "type": "uint256"
        },
        {
          "internalType": "bool",
          "name": "_isRecurring",
          "type": "bool"
        },
        {
          "internalType": "enum SentinelSavings.LockType",
          "name": "_lockType",
          "type": "uint8"
        },
        {
          "internalType": "uint256",
          "name": "_initialDeposit",
          "type": "uint256"
        }
      ],
      "name": "createPlanWithDeposit",
      "outputs": [
        {
          "internalType": "uint256",
          "name": "planId",
          "type": "uint256"
        }
      ],
      "stateMutability": "nonpayable",
      "type": "function"
    },
    {
      "inputs": [
        {
          "internalType": "uint256",
          "name": "_planId",
          "type": "uint256"
        },
        {
          "internalType": "uint256",
          "name": "_amount",
          "type": "uint256"
        }
      ],
      "name": "deposit",
      "outputs": [],
      "stateMutability": "nonpayable",
      "type": "function"
    },
    {
      "inputs": [
        {
          "internalType": "uint256",
          "name": "_planId",
          "type": "uint256"
        },
        {
          "internalType": "uint256",
          "name": "_amount",
          "type": "uint256"
        },
        {
          "internalType": "address",
          "name": "_agentWallet",
          "type": "address"
        }
      ],
      "name": "depositFromAgent",
      "outputs": [],
      "stateMutability": "nonpayable",
      "type": "function"
    },
    {
      "inputs": [
        {
          "internalType": "address",
          "name": "_user",
          "type": "address"
        }
      ],
      "name": "getActivePlanCount",
      "outputs": [
        {
          "internalType": "uint256",
          "name": "count",
          "type": "uint256"
        }
      ],
      "stateMutability": "view",
      "type": "function"
    },
    {
      "inputs": [
        {
          "internalType": "uint256",
          "name": "_planId",
          "type": "uint256"
        }
      ],
      "name": "getPlan",
      "outputs": [
        {
          "internalType": "address",
          "name": "owner",
          "type": "address"
        },
        {
          "internalType": "address",
          "name": "vaultAddress",
          "type": "address"
        },
        {
          "internalType": "string",
          "name": "name",
          "type": "string"
        },
        {
          "internalType": "uint256",
          "name": "totalDeposited",
          "type": "uint256"
        },
        {
          "internalType": "uint256",
          "name": "unlockTime",
          "type": "uint256"
        },
        {
          "internalType": "uint256",
          "name": "createdAt",
          "type": "uint256"
        },
        {
          "internalType": "bool",
          "name": "withdrawn",
          "type": "bool"
        },
        {
          "internalType": "bool",
          "name": "isRecurring",
          "type": "bool"
        },
        {
          "internalType": "enum SentinelSavings.LockType",
          "name": "lockType",
          "type": "uint8"
        }
      ],
      "stateMutability": "view",
      "type": "function"
    },
    {
      "inputs": [
        {
          "internalType": "address",
          "name": "_user",
          "type": "address"
        }
      ],
      "name": "getTotalLocked",
      "outputs": [
        {
          "internalType": "uint256",
          "name": "total",
          "type": "uint256"
        }
      ],
      "stateMutability": "view",
      "type": "function"
    },
    {
      "inputs": [
        {
          "internalType": "address",
          "name": "_user",
          "type": "address"
        }
      ],
      "name": "getUserPlans",
      "outputs": [
        {
          "internalType": "uint256[]",
          "name": "",
          "type": "uint256[]"
        }
      ],
      "stateMutability": "view",
      "type": "function"
    },
    {
      "inputs": [
        {
          "internalType": "uint256",
          "name": "_planId",
          "type": "uint256"
        }
      ],
      "name": "isUnlocked",
      "outputs": [
        {
          "internalType": "bool",
          "name": "",
          "type": "bool"
        }
      ],
      "stateMutability": "view",
      "type": "function"
    },
    {
      "inputs": [],
      "name": "mneeToken",
      "outputs": [
        {
          "internalType": "contract IERC20",
          "name": "",
          "type": "address"
        }
      ],
      "stateMutability": "view",
      "type": "function"
    },
    {
      "inputs": [
        {
          "internalType": "uint256",
          "name": "",
          "type": "uint256"
        }
      ],
      "name": "savingsPlans",
      "outputs": [
        {
          "internalType": "address",
          "name": "owner",
          "type": "address"
        },
        {
          "internalType": "address",
          "name": "vaultAddress",
          "type": "address"
        },
        {
          "internalType": "string",
          "name": "name",
          "type": "string"
        },
        {
          "internalType": "uint256",
          "name": "totalDeposited",
          "type": "uint256"
        },
        {
          "internalType": "uint256",
          "name": "unlockTime",
          "type": "uint256"
        },
        {
          "internalType": "uint256",
          "name": "createdAt",
          "type": "uint256"
        },
        {
          "internalType": "bool",
          "name": "withdrawn",
          "type": "bool"
        },
        {
          "internalType": "bool",
          "name": "isRecurring",
          "type": "bool"
        },
        {
          "internalType": "enum SentinelSavings.LockType",
          "name": "lockType",
          "type": "uint8"
        }
      ],
      "stateMutability": "view",
      "type": "function"
    },
    {
      "inputs": [
        {
          "internalType": "uint256",
          "name": "_planId",
          "type": "uint256"
        }
      ],
      "name": "timeUntilUnlock",
      "outputs": [
        {
          "internalType": "uint256",
          "name": "",
          "type": "uint256"
        }
      ],
      "stateMutability": "view",
      "type": "function"
    },
    {
      "inputs": [],
      "name": "totalPlans",
      "outputs": [
        {
          "internalType": "uint256",
          "name": "",
          "type": "uint256"
        }
      ],
      "stateMutability": "view",
      "type": "function"
    },
    {
      "inputs": [
        {
          "internalType": "address",
          "name": "",
          "type": "address"
        },
        {
          "internalType": "uint256",
          "name": "",
          "type": "uint256"
        }
      ],
      "name": "userPlanIds",
      "outputs": [
        {
          "internalType": "uint256",
          "name": "",
          "type": "uint256"
        }
      ],
      "stateMutability": "view",
      "type": "function"
    },
    {
      "inputs": [
        {
          "internalType": "uint256",
          "name": "_planId",
          "type": "uint256"
        }
      ],
      "name": "withdraw",
      "outputs": [],
      "stateMutability": "nonpayable",
      "type": "function"
    }
  ],
  "bytecode": "0x60a060405234801561001057600080fd5b50604051611bec380380611bec83398101604081905261002f9161009f565b60016000556001600160a01b03811661008e5760405162461bcd60e51b815260206004820152601560248201527f496e76616c696420746f6b656e20616464726573730000000000000000000000604482015260640160405180910390fd5b6001600160a01b03166080526100cf565b6000602082840312156100b157600080fd5b81516001600160a01b03811681146100c857600080fd5b9392505050565b608051611adf61010d600039600081816101be0152818161092e01528181610ae201528181610d0a0152818161115401526113d60152611adf6000f3fe608060405234801561001057600080fd5b506004361061010b5760003560e01c806372abc8b7116100a2578063b703981b11610071578063b703981b14610267578063cff979a614610287578063d3e2cdc21461029a578063d8fd66b6146102ad578063e2bbb158146102c057600080fd5b806372abc8b7146101f857806376c5f3261461022e57806380d6664c146102415780639010edb11461025457600080fd5b80632a6d1aa4116100de5780632a6d1aa4146101885780632c11f3ed146101915780632e1a7d4d146101a45780635b71474a146101b957600080fd5b806305b5a5621461011057806305c77a3c146101415780631b934ce51461016257806326cd527414610175575b600080fd5b61012361011e3660046114e8565b6102d3565b60405161013899989796959493929190611539565b60405180910390f35b61015461014f366004611607565b6103bc565b604051908152602001610138565b6101546101703660046114e8565b61044d565b6101236101833660046114e8565b610486565b61015460035481565b61015461019f366004611688565b61059e565b6101b76101b23660046114e8565b6107fb565b005b6101e07f000000000000000000000000000000000000000000000000000000000000000081565b6040516001600160a01b039091168152602001610138565b61021e6102063660046114e8565b60009081526001602052604090206004015442101590565b6040519015158152602001610138565b6101b761023c366004611707565b610a15565b6101b761024f3660046114e8565b610bd3565b610154610262366004611607565b610ddc565b61027a610275366004611607565b610e5b565b604051610138919061173c565b610154610295366004611780565b610ec7565b6101546102a83660046117aa565b610ef8565b61021e6102bb3660046114e8565b611289565b6101b76102ce366004611834565b6112e9565b60016020819052600091825260409091208054918101546002820180546001600160a01b0394851694909216929161030a90611856565b80601f016020809104026020016040519081016040528092919081815260200182805461033690611856565b80156103835780601f1061035857610100808354040283529160200191610383565b820191906000526020600020905b81548152906001019060200180831161036657829003601f168201915b505050506003830154600484015460058501546006909501549394919390925060ff808216916101008104821691620100009091041689565b6001600160a01b0381166000908152600260205260408120815b8154811015610446576000600160008484815481106103f7576103f7611890565b600091825260208083209091015483528201929092526040019020600681015490915060ff1661043357600381015461043090856118bc565b93505b508061043e816118d5565b9150506103d6565b5050919050565b60008181526001602052604081206004810154421061046f5750600092915050565b42816004015461047f91906118ee565b9392505050565b60008181526001602081905260408220805491810154600382015460048301546005840154600685015460028601805489986060988a988998899889988998899895976001600160a01b0397881697909516959460ff808316926101008104821692620100009091049091169087906104fe90611856565b80601f016020809104026020016040519081016040528092919081815260200182805461052a90611856565b80156105775780601f1061054c57610100808354040283529160200191610577565b820191906000526020600020905b81548152906001019060200180831161055a57829003601f168201915b50505050509650995099509950995099509950995099509950509193959799909294969850565b60006001600160a01b0387166105c757604051630306120160e01b815260040160405180910390fd5b836000036105e857604051630f962f3d60e31b815260040160405180910390fd5b600380549060006105f8836118d5565b909155509050600061060d8562015180611901565b61061790426118bc565b9050604051806101200160405280336001600160a01b03168152602001896001600160a01b0316815260200188888080601f01602080910402602001604051908101604052809392919081815260200183838082843760009201829052509385525050506020820181905260408201849052426060830152608082015285151560a082015260c0018460018111156106b1576106b1611501565b9052600083815260016020818152604092839020845181546001600160a01b03199081166001600160a01b03928316178355928601519382018054909316931692909217905590820151600282019061070a908261197c565b50606082015160038201556080820151600482015560a0820151600582015560c082015160068201805460e085015161ffff1990911692151561ff00191692909217610100921515830217808255918401519162ff000019166201000083600181111561077957610779611501565b02179055505033600081815260026020908152604080832080546001810182559084529190922001859055516001600160a01b038b16925084907fe165d8452d91d016916de147b8070c43f67c6509a0967070ddaa2696a29627dd906107e8908c908c9088908c908c90611a3c565b60405180910390a4509695505050505050565b6108036114be565b600081815260016020526040902080546001600160a01b031661083957604051632aecd29f60e21b815260040160405180910390fd5b80546001600160a01b031633146108635760405163f0350d8d60e01b815260040160405180910390fd5b600681015460ff16156108895760405163fcb750df60e01b815260040160405180910390fd5b80600301546000036108ae57604051630686827b60e51b815260040160405180910390fd5b80600401544210156108e45760048181015460405163104d109160e21b8152918201524260248201526044015b60405180910390fd5b60038101805460068301805460ff1916600190811790915560009283905583015460405163a9059cbb60e01b81526001600160a01b039182166004820152602481018390529192917f00000000000000000000000000000000000000000000000000000000000000009091169063a9059cbb906044016020604051808303816000875af1158015610979573d6000803e3d6000fd5b505050506040513d601f19601f8201168201806040525081019061099d9190611a8c565b9050806109bd576040516312171d8360e31b815260040160405180910390fd5b60018301546040518381526001600160a01b0390911690339086907fe5df19de43c8c04fd192bc68e484b2593570925fbb6ad8c07ccafbc2aa5c37a19060200160405180910390a4505050610a126001600055565b50565b610a1d6114be565b600083815260016020526040902080546001600160a01b0316610a5357604051632aecd29f60e21b815260040160405180910390fd5b600681015460ff1615610a795760405163fcb750df60e01b815260040160405180910390fd5b82600003610a9a5760405163162908e360e11b815260040160405180910390fd5b82816003016000828254610aae91906118bc565b90915550506040516323b872dd60e01b81526001600160a01b038381166004830152306024830152604482018590526000917f0000000000000000000000000000000000000000000000000000000000000000909116906323b872dd906064016020604051808303816000875af1158015610b2d573d6000803e3d6000fd5b505050506040513d601f19601f82011682018060405250810190610b519190611a8c565b905080610b71576040516312171d8360e31b815260040160405180910390fd5b826001600160a01b0316857ff7748ed362ae6427631c778e495f7eb63b00c0794b6066744a0cba2c59135a65868560030154604051610bba929190918252602082015260400190565b60405180910390a35050610bce6001600055565b505050565b610bdb6114be565b600081815260016020526040902080546001600160a01b0316610c1157604051632aecd29f60e21b815260040160405180910390fd5b80546001600160a01b03163314610c3b5760405163f0350d8d60e01b815260040160405180910390fd5b600681015460ff1615610c615760405163fcb750df60e01b815260040160405180910390fd5b6001600682015462010000900460ff166001811115610c8257610c82611501565b148015610c925750806004015442105b15610cbc576004818101546040516313c6027760e01b8152918201524260248201526044016108db565b60038101805460068301805460ff1916600117905560009091558015610d9957600182015460405163a9059cbb60e01b81526001600160a01b039182166004820152602481018390526000917f0000000000000000000000000000000000000000000000000000000000000000169063a9059cbb906044016020604051808303816000875af1158015610d53573d6000803e3d6000fd5b505050506040513d601f19601f82011682018060405250810190610d779190611a8c565b905080610d97576040516312171d8360e31b815260040160405180910390fd5b505b604051818152339084907f88a50681a1d03e59ea15fd4f6324e86b511e895c1b5874b2b31282197f326d519060200160405180910390a35050610a126001600055565b6001600160a01b0381166000908152600260205260408120815b81548110156104465760016000838381548110610e1557610e15611890565b6000918252602080832090910154835282019290925260400190206006015460ff16610e495782610e45816118d5565b9350505b80610e53816118d5565b915050610df6565b6001600160a01b038116600090815260026020908152604091829020805483518184028101840190945280845260609392830182828015610ebb57602002820191906000526020600020905b815481526020019060010190808311610ea7575b50505050509050919050565b60026020528160005260406000208181548110610ee357600080fd5b90600052602060002001600091509150505481565b6000610f026114be565b6001600160a01b038816610f2957604051630306120160e01b815260040160405180910390fd5b84600003610f4a57604051630f962f3d60e31b815260040160405180910390fd5b81600003610f6b5760405163162908e360e11b815260040160405180910390fd5b60038054906000610f7b836118d5565b9091555090506000610f908662015180611901565b610f9a90426118bc565b9050604051806101200160405280336001600160a01b031681526020018a6001600160a01b0316815260200189898080601f01602080910402602001604051908101604052809392919081815260200183838082843760009201829052509385525050506020820186905260408201849052426060830152608082015286151560a082015260c00185600181111561103457611034611501565b9052600083815260016020818152604092839020845181546001600160a01b03199081166001600160a01b03928316178355928601519382018054909316931692909217905590820151600282019061108d908261197c565b50606082015160038201556080820151600482015560a0820151600582015560c082015160068201805460e085015161ffff1990911692151561ff00191692909217610100921515830217808255918401519162ff00001916620100008360018111156110fc576110fc611501565b0217905550503360008181526002602090815260408083208054600181018255908452918320909101869055516323b872dd60e01b815260048101929092523060248301526044820186905291506001600160a01b037f000000000000000000000000000000000000000000000000000000000000000016906323b872dd906064016020604051808303816000875af115801561119d573d6000803e3d6000fd5b505050506040513d601f19601f820116820180604052508101906111c19190611a8c565b9050806111e1576040516312171d8360e31b815260040160405180910390fd5b896001600160a01b0316336001600160a01b0316847fe165d8452d91d016916de147b8070c43f67c6509a0967070ddaa2696a29627dd8c8c878c8c60405161122d959493929190611a3c565b60405180910390a46040805185815260208101869052339185917ff7748ed362ae6427631c778e495f7eb63b00c0794b6066744a0cba2c59135a65910160405180910390a3505061127e6001600055565b979650505050505050565b6000818152600160205260408120600681015460ff16156112ad5750600092915050565b6000600682015462010000900460ff1660018111156112ce576112ce611501565b036112dc5750600192915050565b6004015442101592915050565b6112f16114be565b600082815260016020526040902080546001600160a01b031661132757604051632aecd29f60e21b815260040160405180910390fd5b80546001600160a01b031633146113515760405163f0350d8d60e01b815260040160405180910390fd5b600681015460ff16156113775760405163fcb750df60e01b815260040160405180910390fd5b816000036113985760405163162908e360e11b815260040160405180910390fd5b818160030160008282546113ac91906118bc565b90915550506040516323b872dd60e01b8152336004820152306024820152604481018390526000907f00000000000000000000000000000000000000000000000000000000000000006001600160a01b0316906323b872dd906064016020604051808303816000875af1158015611427573d6000803e3d6000fd5b505050506040513d601f19601f8201168201806040525081019061144b9190611a8c565b90508061146b576040516312171d8360e31b815260040160405180910390fd5b6003820154604080518581526020810192909252339186917ff7748ed362ae6427631c778e495f7eb63b00c0794b6066744a0cba2c59135a65910160405180910390a350506114ba6001600055565b5050565b6002600054036114e157604051633ee5aeb560e01b815260040160405180910390fd5b6002600055565b6000602082840312156114fa57600080fd5b5035919050565b634e487b7160e01b600052602160045260246000fd5b6002811061153557634e487b7160e01b600052602160045260246000fd5b9052565b6001600160a01b038a8116825289166020808301919091526101206040830181905289519083018190526000918291905b81831015611589578b830181015185840161014001529182019161156a565b506101409150600082828601015281601f19601f830116850101925050508760608301528660808301528560a08301526115c760c083018615159052565b83151560e08301526115dd610100830184611517565b9a9950505050505050505050565b80356001600160a01b038116811461160257600080fd5b919050565b60006020828403121561161957600080fd5b61047f826115eb565b60008083601f84011261163457600080fd5b50813567ffffffffffffffff81111561164c57600080fd5b60208301915083602082850101111561166457600080fd5b9250929050565b8015158114610a1257600080fd5b80356002811061160257600080fd5b60008060008060008060a087890312156116a157600080fd5b6116aa876115eb565b9550602087013567ffffffffffffffff8111156116c657600080fd5b6116d289828a01611622565b9096509450506040870135925060608701356116ed8161166b565b91506116fb60808801611679565b90509295509295509295565b60008060006060848603121561171c57600080fd5b8335925060208401359150611733604085016115eb565b90509250925092565b6020808252825182820181905260009190848201906040850190845b8181101561177457835183529284019291840191600101611758565b50909695505050505050565b6000806040838503121561179357600080fd5b61179c836115eb565b946020939093013593505050565b600080600080600080600060c0888a0312156117c557600080fd5b6117ce886115eb565b9650602088013567ffffffffffffffff8111156117ea57600080fd5b6117f68a828b01611622565b9097509550506040880135935060608801356118118161166b565b925061181f60808901611679565b915060a0880135905092959891949750929550565b6000806040838503121561184757600080fd5b50508035926020909101359150565b600181811c9082168061186a57607f821691505b60208210810361188a57634e487b7160e01b600052602260045260246000fd5b50919050565b634e487b7160e01b600052603260045260246000fd5b634e487b7160e01b600052601160045260246000fd5b808201808211156118cf576118cf6118a6565b92915050565b6000600182016118e7576118e76118a6565b5060010190565b818103818111156118cf576118cf6118a6565b80820281158282048414176118cf576118cf6118a6565b634e487b7160e01b600052604160045260246000fd5b601f821115610bce57600081815260208120601f850160051c810160208610156119555750805b601f850160051c820191505b8181101561197457828155600101611961565b505050505050565b815167ffffffffffffffff81111561199657611996611918565b6119aa816119a48454611856565b8461192e565b602080601f8311600181146119df57600084156119c75750858301515b600019600386901b1c1916600185901b178555611974565b600085815260208120601f198616915b82811015611a0e578886015182559484019460019091019084016119ef565b5085821015611a2c5787850151600019600388901b60f8161c191681555b5050505050600190811b01905550565b60808152846080820152848660a0830137600060a08683010152600060a0601f19601f88011683010190508460208301528315156040830152611a826060830184611517565b9695505050505050565b600060208284031215611a9e57600080fd5b815161047f8161166b56fea2646970667358221220c1d1fdef57f8f29b1af4e639add44a4cbdc74e48346f59fd00c96a34f32d6b9664736f6c63430008140033",
  "linkReferences": {},
  "deployedLinkReferences": {}
}